:1000000000800020FD0100002902000029020000FC
:100010002902000029020000290200002902000034
:100020002902000029020000290200002902000024
:100030002902000028020000290200002902000015
:100040002902000029020000290200002902000004
:1000500029020000290200002902000029020000F4
:1000600029020000290200002902000029020000E4
:1000700029020000290200002902000029020000D4
:1000800029020000290200002902000029020000C4
:1000900029020000290200002902000029020000B4
:1000A0002902000029020000CD2F000029020000D3
:1000B0002902000029020000290200002902000094
:1000C0002902000029020000290200002902000084
:1000D0002902000029020000290200002902000074
:1000E0002902000029020000290200002902000064
:1000F0002902000029020000290200002902000054
:100100002902000029020000290200002902000043
:100110002902000029020000290200002902000033
:100120002902000029020000290200002902000023
:100130002902000029020000290200002902000013
:1001400010B5054C237833B9044B13B1044800E0D3
:1001500000BF0123237010BDB0000020000000008C
:100160001C39000008B5034B1BB10349034800E0EC
:1001700000BF08BD00000000B40000201C390000D2
:10018000A3F5803A704700BF174B002B08BF134BF5
:100190009D46FFF7F5FF00218B460F461348144A92
:1001A000121A03F087FB0E4B002B00D098470D4B23
:1001B000002B00D098470020002104000D000D48BE
:1001C000002802D00C4800E000BF03F04FFB2000E5
:1001D000290002F030FF03F035FB00BF00000800EB
:1001E000000000000000000000800020B00000209F
:1001F000D4000020000000000000000006488047F6
:100200000649074A074B9A42BEBF51F8040B42F811
:10021000040BF8E7FFF7B8FF2D02000028390000B3
:1002200000000020B0000020FEE700BF80B400AF57
:10023000074B084A9A60064BD3F88830044A43F4C7
:100240007003C2F8883000BFBD465DF8047B70477C
:1002500000ED00E00000000080B400AF034B1B681D
:100260001846BD465DF8047B704700BF08000020BB
:1002700080B582B000AF00237B600E4B1B6F03F094
:100280000703032B09D0032B0ED8012B09D0022B17
:100290000AD1FFF7E1FF786007E0074B1B687B603E
:1002A00003E0064B7B6000E0FEE77B6818460837FA
:1002B000BD4680BD0080004000000020002D3101BF
:1002C00080B582B000AFFFF7D3FF7860094B1B6F9A
:1002D0001B0B03F00F033B603B6801337A68B2FBF2
:1002E000F3F37B60044A7B6813607B681846083729
:1002F000BD4680BD008000400C00002080B400AFEF
:10030000024B1846BD465DF8047B704700B4C40438
:1003100080B400AF034B1B681846BD465DF8047BF4
:10032000704700BF0000002080B400AF00231846D3
:10033000BD465DF8047B704780B400AF024B1846A1
:10034000BD465DF8047B7047002D310180B400AFDD
:100350004FF400431846BD465DF8047B704780B4F7
:1003600000AF4FF47A731846BD465DF8047B7047C2
:1003700080B400AF034B1B681846BD465DF8047B94
:10038000704700BF0400002080B500AFFFF798FF62
:100390000346184680BD80B487B000AFF860B960EE
:1003A0007A607B68002B04D0FB6803F580537B6187
:1003B00003E0FB6803F500537B617B690121BA68A8
:1003C00001FA02F21A6000BF1C37BD465DF8047BDB
:1003D000704780B483B000AF786039607B681A687A
:1003E0003B6822FA03F303F0010318460C37BD46BD
:1003F0005DF8047B7047000080B500AF00BF0421AA
:100400000448FFF7E6FF0346002BF8D100BF00BF0A
:1004100080BD00BF8440004080B500AFFFF7ECFF17
:100420004FF04023D3F884309B0903F00303DBB281
:10043000184680BD80B485B000AF0346FB80002322
:10044000FB60FB88B3F5607F1AD0B3F5607F2EDCCC
:10045000B3F5207F24D0B3F5207F28DCB3F5007FEF
:1004600016D0B3F5007F22DC002B02D0B3F5C07F9D
:100470001DD1134B1B6F1B0B03F00F03FB6017E029
:100480000F4BD3F880301B0903F00303FB600FE030
:100490000B4BD3F890301B0E03F01F03FB6007E0FB
:1004A000074B1B6F9B0A03F00103FB6000E000BFDA
:1004B000FB68013318461437BD465DF8047B70476E
:1004C0000080004090B583B000AF03463960FB80E8
:1004D000FB88B3F5607F43D0B3F5607F7ADCB3F57A
:1004E000207F66D0B3F5207F74DCB3F5007F4DD05C
:1004F000B3F5007F6EDC002B02D0B3F5C07F69D16D
:100500003B68012B0AD03B68022B07D03B68042BC9
:1005100004D03B68082B01D03B68102B00BF01F0D2
:100520004FFA01F0EDF901F033F82D4B1B6F23F476
:1005300070423B68013B1B03294913430B67FFF7DC
:1005400023FF0446FFF768FF0346C3F10203194681
:10055000204600F083FF01F0DDF901F029F83AE0D0
:100560003B68012B04D03B68022B01D03B68042B75
:1005700000BF1B4BD3F8803023F030023B68013BB7
:100580001B0117491343C1F8803024E03B68002B5E
:1005900002D03B68202B00BF114BD3F8903023F0E2
:1005A000F8523B68013B1B060D491343C1F89030DC
:1005B00011E03B68012B01D03B68022B00BF084BC8
:1005C0001B6F23F480623B68013B9B020449134389
:1005D0000B6700E000BF00BF0C37BD4690BD00BFF9
:1005E0000080004080B584B000AF03460A46FB801F
:1005F00013467B710023FB60FB885B099BB2002BD9
:1006000011D0FB885B099BB2012B02D10D4BFB6023
:1006100009E0FB885B099BB2022B02D10A4BFB600D
:1006200001E00A4BFB60FB8803F01F03BB607B7992
:100630001A46B968F868FFF7AEFE00BF1037BD462E
:1006400080BD00BF64800040688000406082004040
:1006500090B585B000AF0346FB800023FB6000230C
:10066000BB60FB88B3F5F06F00F0B182B3F5F06FBB
:1006700000F3B482B3F5E06F00F0A282B3F5E06F4F
:1006800000F3AC82B3F5D06F00F09382B3F5D06F76
:1006900000F3A482B3F5C06F00F08482B3F5C06F9D
:1006A00000F39C82B3F5B06F00F06E82B3F5B06FCB
:1006B00000F39482B3F5A06F00F05F82B3F5A06FF2
:1006C00000F38C82B3F5906F00F05082B3F5906F19
:1006D00000F38482B3F5806F00F04182B3F5806F40
:1006E00000F37C82B3F5607F00F02982B3F5607F70
:1006F00000F37482B3F5407F00F01482B3F5407FBD
:1007000000F36C82B3F5207F00F00082B3F5207F08
:1007100000F36482B3F5007F00F0EC81B3F5007F55
:1007200000F35C82B3F5C07F00F0DF81B3F5C07FDA
:1007300000F35482002B00F0D881002BC0F24E82CF
:10074000B3F5807F00F34A82202BC0F24782203B22
:10075000E02B00F2438201A252F823F0EB0A0000E2
:100760000D0B0000EB0A00000D0B00005F0B0000FA
:100770005F0B00005F0B00005F0B00000D0B000023
:100780000D0B0000890B0000250B0000A50B0000DD
:10079000B30B0000250B00000D0B00000D0B00003B
:1007A0000D0B0000DD0B0000DD0B0000DD0B000079
:1007B000DD0B0000DD0B0000DD0B00007B0B0000FB
:1007C0006D0B00000D0B00000D0B00000D0B000069
:1007D000CF0B0000C10B00000D0B0000DD0B000073
:1007E000DD0B0000DD0B0000DD0B0000DD0B000069
:1007F000DD0B0000DD0B0000DD0B0000DD0B000059
:10080000DD0B0000DD0B0000DD0B0000DD0B000048
:10081000EB0A0000DD0B0000EB0A0000EB0A000011
:10082000EB0A00005F0B0000DD0B0000DD0B000099
:10083000DD0B0000DD0B0000DD0B0000DD0B000018
:10084000DD0B0000DD0B0000DD0B0000DD0B000008
:10085000DD0B0000DD0B0000DD0B0000EB0A0000EB
:10086000EB0A0000DD0B0000DD0B0000DD0B0000DB
:10087000DD0B0000DD0B0000DD0B0000DD0B0000D8
:10088000DD0B0000DD0B0000DD0B0000DD0B0000C8
:10089000DD0B0000DD0B0000DD0B0000DD0B0000B8
:1008A000DD0B0000DD0B0000DD0B0000DD0B0000A8
:1008B000DD0B0000DD0B0000DD0B0000DD0B000098
:1008C000DD0B0000DD0B0000DD0B0000DD0B000088
:1008D000DD0B0000DD0B0000DD0B0000E10A000075
:1008E000DD0B0000DD0B0000DD0B0000DD0B000068
:1008F000DD0B0000DD0B0000DD0B0000DD0B000058
:10090000DD0B0000DD0B0000DD0B0000DD0B000047
:10091000DD0B0000DD0B0000DD0B0000DD0B000037
:10092000DD0B0000DD0B0000DD0B0000DD0B000027
:10093000DD0B0000DD0B0000DD0B0000DD0B000017
:10094000DD0B0000DD0B0000DD0B0000DD0B000007
:10095000DD0B0000DD0B0000DD0B0000DD0B0000F7
:10096000DD0B0000DD0B0000DD0B0000DD0B0000E7
:10097000DD0B0000DD0B0000DD0B0000DD0B0000D7
:10098000DD0B0000DD0B0000DD0B0000DD0B0000C7
:10099000DD0B0000DD0B0000DD0B0000DD0B0000B7
:1009A000DD0B0000DD0B0000DD0B0000DD0B0000A7
:1009B000DD0B0000DD0B0000DD0B0000DD0B000097
:1009C000DD0B0000DD0B0000DD0B0000DD0B000087
:1009D000DD0B0000DD0B0000DD0B0000DD0B000077
:1009E000DD0B0000DD0B0000DD0B0000DD0B000067
:1009F000DD0B0000DD0B0000DD0B0000DD0B000057
:100A0000DD0B0000DD0B0000DD0B0000DD0B000046
:100A1000DD0B0000DD0B0000DD0B0000DD0B000036
:100A2000DD0B0000DD0B0000DD0B0000DD0B000026
:100A3000DD0B0000DD0B0000DD0B0000DD0B000016
:100A4000DD0B0000DD0B0000DD0B0000DD0B000006
:100A5000DD0B0000DD0B0000DD0B0000DD0B0000F6
:100A6000DD0B0000DD0B0000DD0B0000DD0B0000E6
:100A7000DD0B0000DD0B0000DD0B0000DD0B0000D6
:100A8000DD0B0000DD0B0000DD0B0000DD0B0000C6
:100A9000DD0B0000DD0B0000DD0B0000DD0B0000B6
:100AA000DD0B0000DD0B0000DD0B0000DD0B0000A6
:100AB000DD0B0000DD0B0000DD0B0000DD0B000096
:100AC000DD0B0000DD0B0000DD0B0000DD0B000086
:100AD000DD0B0000DD0B0000DD0B0000970B0000BC
:100AE000FFF7C6FB0346FB6079E0FFF7E9FB03462F
:100AF000FB6074E0FFF7BCFB04464FF40070FFF7A7
:100B000099FC0346B4FBF3F3FB6068E0FFF7D8FB06
:100B100004464FF42070FFF78DFC0346B4FBF3F35B
:100B2000FB605CE0FFF7CCFB04464FF42070FFF75E
:100B300081FC0346B4FBF3F35B08FB604FE007F175
:100B400008030021184600F049FDBC684FF46070AE
:100B5000FFF770FC0346B4FBF3F3FB603FE007F1E3
:100B60000C030021184600F099FD38E007F10C0352
:100B70000021184600F088FC31E007F10C03002149
:100B8000184600F0D9FC2AE007F10C0300211846B2
:100B900000F080FE23E007F10C030021184600F06E
:100BA00065FF1CE007F10C030021184600F0B2FDC0
:100BB00015E007F10C030021184600F00DFF0EE0D0
:100BC00007F10C030021184600F0BEFE07E007F114
:100BD0000C030021184600F0D9FD00E000BFFB68BF
:100BE00018461437BD4690BD80B584B000AF0346AB
:100BF000FB800023FB73FB88B3F5086F00F01381C3
:100C0000B3F5086F00F32481B3F5006F00F0FD80A9
:100C1000B3F5006F00F31C81B3F5F06F00F0EE80C8
:100C2000B3F5F06F00F31481B3F5E06F00F00981C4
:100C3000B3F5E06F00F30C81B3F5D06F00F0EC80FA
:100C4000B3F5D06F00F30481B3F5C06F00F0CF802F
:100C5000B3F5C06F00F3FC80B3F5B06F00F0B28065
:100C6000B3F5B06F00F3F480B3F5A06F00F0E2804D
:100C7000B3F5A06F00F3EC80B3F5906F00F0C58082
:100C8000B3F5906F00F3E480B3F5806F00F0A180BE
:100C9000B3F5806F00F3DC80B3F5807F00F0A080B7
:100CA000B3F5807F00F3D480522B67DC242BC0F295
:100CB000CF80243B2E2B00F2CB8001A252F823F0F0
:100CC000D30D0000D30D0000D30D0000D30D0000A4
:100CD000510E0000510E0000C50D0000510E000025
:100CE000EF0D0000190E0000510E0000510E000023
:100CF000510E0000510E0000510E0000510E000078
:100D0000510E0000510E0000510E0000510E000067
:100D1000350E0000510E0000510E0000510E000073
:100D2000510E0000FD0D0000430E0000510E0000AA
:100D3000510E0000510E0000510E0000510E000037
:100D4000510E0000510E0000510E0000510E000027
:100D5000510E0000510E0000510E0000510E000017
:100D6000510E0000510E0000510E0000510E000007
:100D7000510E0000510E0000D30D0000802B67D1F2
:100D8000364B1B6F03F00703013B032B16D801A260
:100D900052F823F0B70D0000A50D0000AB0D0000C8
:100DA000B10D00000523FB730BE00323FB7308E088
:100DB0000723FB7305E00223FB7302E00023FB73B0
:100DC00000BF46E007F10F031946002000F062FD66
:100DD0003FE007F10F031946002000F05FFC38E008
:100DE00007F10F031946002000F040FE31E007F143
:100DF0000F031946002000F08DFC2AE007F10F03D5
:100E00001946002000F0C2FC23E007F10F03194649
:100E1000002000F039FB1CE007F10F031946002009
:100E200000F0DAFD15E007F10F031946002000F08D
:100E3000F1FB0EE007F10F031946002000F07CFBE8
:100E400007E007F10F031946002000F07DFD00E0E8
:100E500000BFFB7B18461037BD4680BD00800040B8
:100E600090B585B000AF03460A46FB8013467B7100
:100E70000023FB600023FB720023BB72FB88B3F5E9
:100E8000086F00F07B82B3F5086F00F3DF82B3F5E3
:100E9000006F00F00B82B3F5006F00F3D782B3F55B
:100EA000F06F00F0E281B3F5F06F00F3CF82B3F59D
:100EB000E06F00F0AA82B3F5E06F00F3C782B3F5EC
:100EC000D06F00F02E82B3F5D06F00F3BF82B3F580
:100ED000C06F00F0A981B3F5C06F00F3B782B3F51E
:100EE000B06F00F00281B3F5B06F00F3AF82B3F5DD
:100EF000A06F00F07382B3F5A06F00F3A782B3F583
:100F0000906F00F0D381B3F5906F00F39F82B3F53B
:100F1000806F00F00181B3F5806F00F39782B3F525
:100F2000807F00F01881B3F5807F00F38F82522B11
:100F300068DC242BC0F28A82243B2E2B00F28682AE
:100F400001A252F823F000BF19110000191100008E
:100F500019110000191100004D1400004D1400007B
:100F6000EB1000004D1400002912000023130000B4
:100F70004D1400004D1400004D1400004D140000ED
:100F80004D1400004D1400004D1400004D140000DD
:100F90004D1400004D140000DD1300004D1400003E
:100FA0004D1400004D1400004D1400006B120000A1
:100FB0000B1400004D1400004D1400004D140000EF
:100FC0004D1400004D1400004D1400004D1400009D
:100FD0004D1400004D1400004D1400004D1400008D
:100FE0004D1400004D1400004D1400004D1400007D
:100FF0004D1400004D1400004D1400004D1400006D
:1010000019110000802B40F021827B79023B052BD7
:1010100030D801A252F823F06F1000003710000002
:1010200075100000311000007510000069100000FC
:101030000223FB601FE00323FB60AB4B03F58053EF
:101040001A464FF400235366A84B9B6A03F0020331
:10105000002B14BF01230023FB72A44B03F5805324
:101060001A460123936206E00423FB6003E0012398
:10107000FB6000E000BF0121022000F07FFE00F0D5
:101080009FFC00F03DFC00F083FA974B1B6F23F0B0
:1010900007029549FB6813430B67FFF775F9044690
:1010A000FFF7BAF90346C3F102031946204600F0E0
:1010B000D5F90121002000F035FE00F02BFC00F0F6
:1010C00077FAFB7A83F00103DBB2002B09D07B793E
:1010D000032B08D1854B03F500531A460123936275
:1010E00002E000BFB3E100BFB1E17B79022B04D085
:1010F0000F2B05D10123FB6003E00223FB6000E01E
:1011000000BF794BD3F8803123F003027649FB68A6
:101110001343C1F880319AE17B79052B06D0052B6A
:101120000DDC022B08D0032B03D008E00123FB6069
:1011300006E00223FB6003E00323FB6000E000BF46
:10114000694BD3F8203123F003026749FB6813434E
:10115000C1F820317BE17B79083B082B62D801A2E2
:1011600052F823F0891100008911000025120000B7
:1011700089110000D711000025120000251200007F
:101180002512000089110000574B5B6E03F4803379
:10119000002B0CBF01230023BB72534B03F580537C
:1011A0001A464FF480335366514B1B6A504A43F042
:1011B00001031362BB7A002B06D04B4B03F500539F
:1011C0001A464FF4803353664A4B1B68494A23F052
:1011D0000403136027E0444B5B6E03F48033002B61
:1011E0000CBF01230023BB723F4B03F580531A460B
:1011F0004FF4803353663E4B1B6A3D4A23F0010394
:101200001362BB7A002B06D0374B03F500531A4606
:101210004FF480335366374B1B68364A43F0040360
:10122000136000E000BF12E17B790B2B0ED00B2B7B
:101230000FDC082B07D0082B0BDB093B012B08D850
:101240000123FB6006E00223FB6003E00323FB6055
:1012500000E000BF244BD3F8403123F003022249C1
:10126000FB681343C1F84031F1E07B790B2B0ED0C2
:101270000B2B0FDC082B07D0082B0BDB093B012BBA
:1012800008D80123FB6006E00223FB6003E0032390
:10129000FB6000E000BF144BD3F8603123F0030281
:1012A0001149FB681343C1F86031D0E07B79023B00
:1012B000052B2AD801A252F823F000BFE11200004A
:1012C000DB12000005130000D5120000FF12000021
:1012D000F91200000123FB6018E00223FB6015E017
:1012E0000323FB6012E000BF0080004000C000400C
:1012F00000C0074010E000E00423FB6006E0052387
:10130000FB6003E00623FB6000E000BF524BD3F814
:10131000243123F007025049FB681343C1F82431FC
:1013200095E07B79083B062B1CD801A252F823F0EC
:10133000531300004D1300004D130000591300001B
:1013400065130000651300005F1300000123FB60BC
:1013500009E00223FB6006E00323FB6003E00423B3
:10136000FB6000E000BF3C4BD3F8003223F00702E3
:101370003949FB681343C1F8003268E07B79013BCF
:10138000072B1FD801A252F823F000BFBF130000A3
:10139000C5130000AD130000C5130000C513000005
:1013A000C5130000B9130000B31300000123FB6054
:1013B00009E00223FB6006E00323FB6003E0002357
:1013C000FB6000E000BF244BD3F8003123F00302A0
:1013D0002149FB681343C1F8003138E07B790F2BBA
:1013E00002D0102B03D005E00123FB6002E00223B2
:1013F000FB6000BF184BD3F8203223F003021649DC
:10140000FB681343C1F8203221E07B790B2B0ED00F
:101410000B2B0FDC082B07D0082B0BDB093B012B18
:1014200008D80123FB6006E00223FB6003E00323EE
:10143000FB6000E000BF084BD3F8403223F003020A
:101440000549FB681343C1F8403200E000BF00BF0C
:101450001437BD4690BD00BF0080004080B582B00B
:1014600000AF786039603B68002B04DD01217868AB
:1014700000F0C8F903E00021786800F0C3F900BF6C
:101480000837BD4680BD000080B584B000AF7860ED
:1014900039600023FB60274BD3F8243103F00703A6
:1014A000013B052B32D801A252F823F0C5140000ED
:1014B000DD140000F514000001150000D114000037
:1014C000E9140000FEF7C8FEF8600523FB7220E077
:1014D000FEF7C2FEF8600623FB721AE0FEF718FF63
:1014E000F8600323FB7214E0FEF712FFF860042398
:1014F000FB720EE0FEF720FFF8600223FB7208E0AB
:10150000FEF712FFF8600723FB7202E00023FB7274
:1015100000BF7B68002B02D07B68FA681A603B68CA
:10152000002B02D03B68FA7A1A7000BF1037BD4614
:1015300080BD00BF0080004080B582B000AF786001
:101540003960124BD3F8203203F00303012B02D091
:10155000022B05D009E03968786800F09FF811E0A7
:101560003968786800F0D6F80CE07B68002B02D070
:101570007B6800221A603B68002B02D03B68002287
:101580001A7000BF00BF0837BD4680BD0080004014
:1015900080B400AF054B03F580531A464FF48033F7
:1015A000136700BFBD465DF8047B704700800040B4
:1015B00080B500AF8020FFF74BF80346054A934201
:1015C00006D8054B03F500531A464FF480331367D2
:1015D00000BF80BD005A62020080004080B584B028
:1015E00000AF786039600023FB60FEF741FEF860D1
:1015F0000D23FB727B68002B02D07B68FA681A60AF
:101600003B68002B02D03B68FA7A1A7000BF103793
:10161000BD4680BD80B584B000AF786039600023DE
:10162000FB601D4BD3F8003103F00303032B20D8DC
:1016300001A252F823F000BF6D1600004916000009
:101640005516000061160000FEF762FEF8600323E5
:10165000FB7211E0FEF78CFEF8600823FB720BE0D2
:10166000FEF762FEF8600723FB7205E00123FB72C0
:1016700002E00023FB7200BF7B68002B02D07B6876
:10168000FA681A603B68002B02D03B68FA7A1A703D
:1016900000BF1037BD4680BD0080004080B584B0DB
:1016A00000AF786039600023FB60194BD3F820311C
:1016B00003F00303032B12D0032B16D8012B02D007
:1016C000022B06D011E0FEF7C7FDF8600523FB7280
:1016D0000EE0FEF71DFEF8600323FB7208E0FEF744
:1016E0002BFEF8600223FB7202E00023FB7200BFB6
:1016F0007B68002B02D07B68FA681A603B68002B7D
:1017000002D03B68FA7A1A7000BF1037BD4680BD20
:101710000080004080B584B000AF7860396000235D
:10172000FB60194BD3F8403103F00303032B12D0B5
:10173000032B16D8012B02D0022B06D011E0FEF7A6
:1017400005FEF8600923FB720EE0FEF711FEF8605B
:101750000823FB7208E0FEF702FEF8600B23FB7221
:1017600002E00023FB7200BF7B68002B02D07B6885
:10177000FA681A603B68002B02D03B68FA7A1A704C
:1017800000BF1037BD4680BD0080004080B584B0EA
:1017900000AF786039600023FB60194BD3F86031EB
:1017A00003F00303032B12D0032B16D8012B02D016
:1017B000022B06D011E0FEF7C9FDF8600923FB7289
:1017C0000EE0FEF7D5FDF8600823FB7208E0FEF797
:1017D000C6FDF8600B23FB7202E00023FB7200BF22
:1017E0007B68002B02D07B68FA681A603B68002B8C
:1017F00002D03B68FA7A1A7000BF1037BD4680BD30
:101800000080004080B584B000AF786039601E4B26
:1018100003F580531A464FF4003393660020FEF719
:1018200009FE02467B6802FB03F37B60174BDB6912
:1018300003F48033B3F5803F0CBF01230023FB7218
:10184000124B41F67132DA63104B9B6823F440135C
:10185000FB607B680E4A934207D93B68002B04DC8F
:10186000FB6843F48013FB6000E000BF074AFB689D
:101870009360FB7A002B02D0044B0022DA6300BF96
:101880001037BD4680BD00BF00800040000003400F
:10189000005A620280B584B000AF786039600023DE
:1018A000BB60164BD3F8803103F00303012B02D049
:1018B000022B09D00FE007F1080300211846FFF7BB
:1018C000EDFE0F23FB7309E0FEF736FD0346BB6018
:1018D0000223FB7302E00023FB7300BF7B68002B35
:1018E00002D0BA687B681A603B68002B02D03B6864
:1018F000FA7B1A7000BF1037BD4680BD00800040E3
:1019000080B500AF02214FF42070FEF7DBFD00BF71
:1019100080BD000080B582B000AF02237B604FF431
:10192000C070FEF795FE0346064A934201D8012394
:101930007B6079684FF42070FEF7C4FD00BF083764
:10194000BD4680BD80F0FA0280B584B000AF7860FB
:1019500039600023FB60194BD3F8403203F00303D6
:10196000032B12D0032B16D8012B02D0022B06D04A
:1019700011E0FEF7EBFCF8600923FB720EE0FEF7C6
:10198000F7FCF8600823FB7208E0FEF7E8FCF8605B
:101990000B23FB7202E00023FB7200BF7B68002B6D
:1019A00002D07B68FA681A603B68002B02D03B6863
:1019B000FA7A1A7000BF1037BD4680BD0080004023
:1019C00080B500AFFEF79AFC034600211846FFF7EA
:1019D00019FF00BF80BD000080B584B000AF786003
:1019E00039600023FB60204BD3F8003203F007037B
:1019F000013B032B24D801A252F823F00D1A00005A
:101A0000191A0000251A0000311A0000FEF79EFC8A
:101A1000F8600923FB7216E0FEF7AAFCF8600823C1
:101A2000FB7210E0FEF79BFCF8600B23FB720AE0F0
:101A3000FEF746FC03469B0AFB600E23FB7202E0A6
:101A40000023FB7200BF7B68002B02D07B68FA6822
:101A50001A603B68002B02D03B68FA7A1A7000BF0C
:101A60001037BD4680BD00BF0080004080B584B007
:101A700000AF786039600023FB60124B1B6803F0F5
:101A80000403002B06D0FEF71BFC0346FB600C236F
:101A9000FB7207E007F10B0207F10C031146184631
:101AA000FFF738FE7B68002B02D0FA687B681A606B
:101AB0003B68002B02D0FA7A3B681A7000BF1037DF
:101AC000BD4680BD10E000E080B483B000AFEFF30E
:101AD00010833B603B687B6072B600BF7B68184632
:101AE0000C37BD465DF8047B704780B483B000AF0F
:101AF00078607B68002B01D162B600BF00BF0C3755
:101B0000BD465DF8047B704780B500AFFEF7D8FB9B
:101B100000BF80BD80B483B000AF786039607B685F
:101B20001A683B6822FA03F303F0010318460C37E6
:101B3000BD465DF8047B704780B500AF00BF04214F
:101B40000448FFF7E7FF0346002BF8D100BF00BFB2
:101B500080BD00BF8440004080B500AFFFF7ECFFC0
:101B60004FF04023D3F884309B0903F00303DBB22A
:101B7000184680BD80B483B000AF0346FB71FB798B
:101B8000013B4FF4806202FA03F318460C37BD465E
:101B90005DF8047B7047000080B584B000AF034659
:101BA000FB71FB79002B13D12C4B00221A602C4BBC
:101BB00003F580531A464FF400335366294B5B6894
:101BC000012B47D1264BD3F80031244A136041E062
:101BD000224B1B68002B3DD0224B5B68012B39D078
:101BE0001F4A1E4B1B68C2F800318020FEF7FCFF25
:101BF0000346052B28D14FF4C070FEF71BFCF8609C
:101C0000FB68012B04D102214FF4C070FEF75AFC8F
:101C1000144B03F500531A4607231361114B03F5C8
:101C200080531A460123536000BF0E4B1B6903F01B
:101C30000103002BF9D0FB68012B0BD101214FF4DC
:101C4000C070FEF73FFC05E0064B03F580531A46D3
:101C50000123536000BF1037BD4680BDD000002077
:101C60000080004000C0014080B400AF00BFBD460E
:101C70005DF8047B704780B400AF00BFBD465DF8DF
:101C8000047B704780B400AF00BFBD465DF8047BA5
:101C9000704780B400AF00BFBD465DF8047B70475D
:101CA00080B584B000AF0346FB71FB79002B02D0F6
:101CB0000020FFF771FF144B1B69134A43F0040324
:101CC0001361FFF7D1FFFFF7D6FFFFF7FDFEF860C6
:101CD00001F006FEF868FFF708FFFFF7DAFFFFF7ED
:101CE000D1FFFB79002B02D00120FFF755FFFB79D4
:101CF00083F00103DBB2002B01D0FFF705FF00BF2B
:101D00001037BD4680BD00BF00ED00E080B483B059
:101D100000AF0346FB7100BF0C37BD465DF8047B86
:101D20007047000080B584B000AF78600B46FB7050
:101D30007B68002B03D1FEF79BFAF86001E07B681B
:101D4000FB600C4B1B78002B09D0FB680A4A9342BE
:101D500005D8FB781946012000F010F805E0FB7863
:101D60001946022000F00AF800BF00BF1037BD4638
:101D700080BD00BFCC000020005A620290B587B041
:101D800000AF03460A46FB711346BB71FFF7E4FE42
:101D900003461A46FB79934241D0FEF769FA78610F
:101DA0007B693B61FB79012B03D101217869FFF746
:101DB00055FBFFF789FEF8604FF0402303F5005311
:101DC0001A464FF000735366FB791846FFF79EFFE3
:101DD0004FF04024FB791846FFF7CCFE03462367FB
:101DE00003E04FF04023D3F884304FF040235B6E84
:101DF00003F00073002B07D14FF04023D3F8843059
:101E000003F02003002BECD0F868FFF76EFEFB799F
:101E1000022B05D100217869FFF720FB00E000BF0D
:101E20001C37BD4690BD80B487B000AFF860B96084
:101E30007A607B68002B04D0FB6803F580537B61DC
:101E400003E0FB6803F500537B617B690121BA68FD
:101E500001FA02F21A6000BF1C37BD465DF8047B30
:101E6000704780B586B000AFF860B9607A60FFF760
:101E70002BFE7861FB681A68BB68DB431A407968FF
:101E8000BB680B401A43FB681A607869FFF72DFEA8
:101E900000BF1837BD4680BD80B483B000AF786006
:101EA000064B03F500531A467B68C2F8203400BF86
:101EB0000C37BD465DF8047B704700BF00C003408F
:101EC00080B483B000AF03463960FB71FB79002B0F
:101ED00007D0FB79012B04D0FB79022B01D0FB79D1
:101EE000032B0A48FA7901213B68994013465B00AD
:101EF00013441B01034403F500531033196000BF62
:101F00000C37BD465DF8047B704700BF00C003403E
:101F100080B483B000AF03463960FB71FB79002BBE
:101F200007D0FB79012B04D0FB79022B01D0FB7980
:101F3000032B0A48FA7901213B68994013465B005C
:101F400013441B01034403F580531033196000BF91
:101F50000C37BD465DF8047B704700BF00C00340EE
:101F600080B586B000AFB9607A601A460346FB734D
:101F70001346BB7300237B61FB7B002B07D0FB7BED
:101F8000012B04D0FB7B022B01D0FB7B032B7B6856
:101F9000072B0ED87B689B00032202FA03F1FA7B21
:101FA0007B689B0002FA03F31A462C48FFF759FF9F
:101FB00010E07B68083B7B617B699B00032202FA8F
:101FC00003F1FA7B7B699B0002FA03F31A4624486B
:101FD000FFF747FF7B68072B10D87B689B00032225
:101FE00002FA03F1BB6803F003027B689B0002FA6C
:101FF00003F31A461B48FFF734FF0FE07B699B0091
:10200000032202FA03F1BB6803F003027B699B0021
:1020100002FA03F31A461448FFF723FFBB7B1A4664
:1020200079681248FFF7FFFE97F820301A46796862
:102030000F48FFF7F8FE01227B6802FA03F3184607
:10204000FFF72AFF97F824301A4679680948FFF706
:10205000EAFE00BF1837BD4680BD00BF00C4034084
:1020600004C4034008C403400CC4034010C403402C
:1020700014C4034024C4034080B584B000AFB960E9
:102080007B600346FB731346BB73FB7B002B07D0BF
:10209000FB7B012B04D0FB7B022B01D0FB7B032BB2
:1020A000BB7B002B0DD07B68002B05D0FB7BB96878
:1020B0001846FFF72DFF04E0FB7BB9681846FFF7D1
:1020C000FFFEBB68072B18D8FA7B13465B0013444E
:1020D0001B01043303F1804303F57033BA689200A7
:1020E0000F2101FA02F0B97BBA68920001FA02F2FC
:1020F00001461846FFF7B5FE19E0FA7B13465B0070
:1021000013441B010C3303F1804303F57033BA68A9
:10211000083A92000F2101FA02F0B97BBA68083A36
:10212000920001FA02F201461846FFF79AFEBB7BC5
:10213000002B0DD17B68002B05D0FB7BB9681846BE
:10214000FFF7E6FE04E0FB7BB9681846FFF7B8FE30
:1021500000BF1037BD4680BD80B483B000AF78604B
:102160007B685B6F18460C37BD465DF8047B704793
:1021700080B483B000AF78607B68DB6F18460C37A3
:10218000BD465DF8047B704780B483B000AF7860D3
:102190007B68D3F8843018460C37BD465DF8047B65
:1021A000704780B483B000AF78607B68D3F88C3020
:1021B00018460C37BD465DF8047B704780B483B089
:1021C00000AF786039607B6803F500531A463B68BE
:1021D000536200BF0C37BD465DF8047B704780B486
:1021E00083B000AF786039607B6803F500531A460E
:1021F0003B68936200BF0C37BD465DF8047B7047B7
:1022000080B483B000AF786039607B683A68DA6088
:1022100000BF0C37BD465DF8047B704780B483B0C7
:1022200000AF786000BF7B685B6903F08073002BB0
:10223000F9D17B6803F500531A460123536000BFB0
:102240000C37BD465DF8047B704780B483B000AFA7
:1022500078607B6803F580531A460123536000BF02
:102260000C37BD465DF8047B704780B487B000AF83
:10227000F860B9601346FB71FB79022B02DC002B7E
:1022800004DA1EE0033B022B1BD812E0BB6823F0EC
:102290007F43BA6802F40002002A02D04FF07F4266
:1022A00000E0002213433B61BB681B0EDBB23B75B1
:1022B00008E0BB6823F0FF033B61BB68DBB23B7502
:1022C00000E000BFFB681A4607F1100393E8030023
:1022D00082E80300F8681C37BD465DF8047B704750
:1022E00080B592B002AFF860B9607A600022B2495E
:1022F000F86800F063FC034687F83730BB685B7909
:1023000087F82B3097F82B2097F837309A4203D371
:1023100097F82B3087F83730F868FFF77FFFBB68F6
:102320001B7987F8363097F83630002B06D100211C
:10233000F86800F011FC034687F83630BB68DB789C
:102340001B0103F0300297F836301B0403F4FE0340
:102350001A4397F837301B0703F0E0431343FB633E
:10236000BB681B78002B03D0FB6B43F00203FB63BD
:10237000BB685B78002B03D0FB6B43F00403FB636B
:10238000BB689B78002B03D0FB6B43F00803FB6317
:10239000FB68FA6B9A60BB68DB881A46FB681A61B7
:1023A000BB681B891B04BA6852891A43FB681A620E
:1023B0000023BB6376E27968BA6B13469B00134433
:1023C0009B000B441B7887F82A307968BA6B134658
:1023D0009B0013449B000B4408331B6887F82B3089
:1023E00097F82A30002B01D1744900E0744997F81E
:1023F0002A2097F83730009313460022F86800F03F
:102400000FFC78627B6A3B6297F82B30FB77FA7F90
:102410003B6A934238BF13467B62FA68BB6B1B0171
:10242000134448331A68674B1340FB6397F82A300C
:1024300003F00302FB6B42EA03017868BA6B1346B0
:102440009B0013449B00034401331B789B0003F063
:102450001C0319437868BA6B13469B0013449B0016
:10246000034402331B781B0303F4E04319437868E9
:10247000BA6B13469B0013449B00034403331B7841
:102480001B0403F4E02319437868BA6B13469B00DE
:1024900013449B00034410331B785B0503F4600373
:1024A00019437868BA6B13469B0013449B0003449E
:1024B00004331B781B0703F0405341EA0302F96819
:1024C000BB6B1B010B4448331A60FA68BB6B1B01E2
:1024D000134448331B681B0B03F00703BB61BB6944
:1024E000013B042B22D801A252F823F00125000061
:1024F000012500000B250000172500002125000004
:10250000314BD3F88031BB8615E02F4BD3F88031A7
:102510001B0CBB860FE02C4BD3F88431BB860AE042
:10252000294BD3F884311B0CBB8604E0264BD3F82F
:102530008031BB8600BF97F82A30002B40F0A48181
:102540004FF000033B63FA68BB6B1B011344483335
:102550001B681B0B03F00703BB61BB69012B02D097
:10256000BB69022B04D1184BD3F88031BB867AE0CB
:10257000BB69032B2AD1144BD3F880311B0CBB86CB
:1025800097F82A30002B0BD10F4BD3F88C311B0C52
:102590001BB207EE903AF8EEE77AC7ED0C7A62E0EC
:1025A000094BD3F894311B0C1BB207EE903AF8EEAE
:1025B000E77AC7ED0C7A56E0005A620280969800DE
:1025C000404B4C00E08F18CF0080E00FBB69042B1C
:1025D00021D1BD4BD3F88431BB8697F82A30002B2C
:1025E0000CD1B94BD3F88C311B0C1BB25B0007EE3E
:1025F000903AF8EEE77AC7ED0C7A34E0B24BD3F8B4
:1026000094311B0C1BB25B0007EE903AF8EEE77AB0
:10261000C7ED0C7A27E0AC4BD3F884311B0CBB869A
:1026200097F82A30002B0FD1A74BD3F88C311B0C15
:102630001BB21A4613465B00134407EE903AF8EEBD
:10264000E77AC7ED0C7A0EE09F4BD3F894311B0C60
:102650001BB21A4613465B00134407EE903AF8EE9D
:10266000E77AC7ED0C7ABA8E49F6FF731340FB6325
:10267000FB6B9B04FB62FB6B03F40043002B03D05A
:10268000FB6A43F00043FB62FA68BB6B1B01134417
:1026900048331B689B0803F007030133012202FA49
:1026A00003F37B617B69022B21D197F82A30002B41
:1026B0000ED1854BD3F88C311BB207EE903AF8EE71
:1026C000E77A97ED0C7A77EE277AC7ED0C7A50E02F
:1026D0007D4BD3F894311BB207EE903AF8EEE77ACF
:1026E00097ED0C7A77EE277AC7ED0C7A41E097F8F0
:1026F0002A30002B0ED1744BD3F890311BB207EE69
:10270000903AB8EEE77AD7ED0C7A77EE677AC7EDB4
:102710000C7A11E06C4BD3F898311BB207EE903A6B
:10272000B8EEE77AD7ED0C7A77EE677A97ED0C7A08
:1027300077EE277AC7ED0C7A7B6907EE903AF8EED0
:10274000E77AF0EE006A87EEA67AD7ED0C6AC6EE5D
:10275000877AC7ED0C7A5C4BD3F888311BB207EE51
:10276000903AF8EEE77A97ED0C7A77EE277AC7ED94
:102770000C7A7968BA6B13469B0013449B000B4498
:102780000C331B6807EE903AF8EE677ADFED4F6A7C
:1027900087EEA67AF7EE046AC6EE877A97ED0C7A92
:1027A00067EE277AC7ED0C7AD7ED0C7AB1EE007A96
:1027B00027EE877A7B6907EE903AF8EEE76A9FED9D
:1027C000446AC6EE267ADFED436A67EEA67A77EEB4
:1027D000277AC7ED0C7AFB6AB3F1004F16D0BB8E97
:1027E00007EE903AF8EEE77ADFED3B6A87EEA67ADD
:1027F000D7ED0C7ADFED396A77EEA67A67EE277AA5
:102800009FED367A77EEC77AC7ED0C7AD7ED0C7A62
:10281000F5EEC07AF1EE10FA0ADDD7ED0C7AF1EEA2
:10282000677AB6EE007A77EEC77AFDEEE77A07E0D0
:10283000B6EE007AD7ED0C7A77EE677AFDEEE77A9E
:10284000C7ED047A3B69B3F5003F06DBFB6A6FEA2C
:1028500053436FEA4343FB620EE03B6913F5003FCD
:1028600004DAFB6A43F40033FB6205E03B69C3F31F
:102870001103FA6A1343FB62FA68BB6B05331B0151
:102880001344FA6A1A6000E000BF7B6AC3F30902CE
:10289000F968BB6B05331B010B4404331A60BB6B37
:1028A0000133BB63FB680E4A934201D1022200E070
:1028B0000022BB6B9A423FF67EADF868FFF7C5FC7D
:1028C00000BF4037BD4680BD0080E00F00007A4465
:1028D0000000804300002044000000470000004941
:1028E0000040004A80B584B000AFF860B9607A60FB
:1028F000F868FFF793FCBB681B7803F00703BA681E
:102900005278002A01D0082200E000221A43BB6856
:102910009B781B0103F030031343BA68D278002A76
:1029200002D04FF4807200E000221A43FB681A675D
:10293000FB68DB6A23F48B3323F48073BA68127963
:10294000120202F4E0621A43BB685B791B0303F4D2
:1029500080531343BA689279002A02D04FF4803230
:1029600000E000221A43FB68DA627968F86800F038
:102970000FF8F868FFF769FCBB68DB79002B03D020
:102980000121F868FFF73CFC00BF1037BD4680BD51
:1029900080B584B000AF786039607B685B6803F015
:1029A0000103002B14BF01230023FB737868FFF79A
:1029B0004CFC3B681B781A463B685B781B029BB259
:1029C0001A433B689B781B0403F4803313433A6833
:1029D000D278002A02D04FF4003200E000221A43DD
:1029E0007B68C3F89820FB7B83F00103DBB2002BEC
:1029F00002D07868FFF712FC00BF1037BD4680BDDB
:102A000080B584B000AF78607868FFF71EFC7B6803
:102A10004C4ADA6000BF7B685A694B4B1340002B6D
:102A2000F9D17B6800229A617B680022C3F8982064
:102A300000BF7B685B6903F44013002BF9D102E00F
:102A40007868FFF789FB7B685B6903F48073002B70
:102A5000F6D17B689B6F002BF2D102E07868FFF71C
:102A600093FB7B685B6903F40073002BF6D17B68F2
:102A7000D3F88830002BF1D17868FFF779FB7868BC
:102A8000FFF78FFB7868FFF7C9FB7B6800229A602D
:102A90007B6800221A617B680022DA627B68002270
:102AA0001A627B6830221A677B683022C3F8802064
:102AB0000023FB6019E07A68FB681B01134448336C
:102AC00042F260021A607A68FB6805331B01134406
:102AD0001E4A1A607A68FB6805331B0113440433ED
:102AE00000221A60FB680133FB607B68184A93423E
:102AF00001D1022200E00022FB689A42DBD80023C9
:102B0000FB6008E07B68FA682832002143F8221055
:102B1000FB680133FB607B680D4A934201D11022B0
:102B200000E00022FB689A42ECD80A497868FFF777
:102B300045FB08497868FFF752FB00BF1037BD46D8
:102B400080BD00BF120002005200010000C00280E0
:102B50000040004A8F330F8080B584B000AF7860AA
:102B600039603B68002B08D12A20FDF771FD3860E1
:102B70003B68002B01D101233B603B6803F57423C4
:102B800003F23F233B603B680B4AA2FB03239B0CF1
:102B90003B603B68013B3B603B68FB607F23BB6065
:102BA000BA68FB68934228BF13463B603B68DBB2C0
:102BB00018461037BD4680BD83DE1B4380B588B004
:102BC00000AFF860B9607A60BB68BB61134B7B6192
:102BD0007A69BB69934228BF1346BB607B68002BB0
:102BE00003D12A20FDF734FD78607A68BB6813446E
:102BF0005A1EBB68B2FBF3F3FB61FB69002B02D0EA
:102C0000FB69013BFB61FB69032B01D90323FB61DA
:102C1000FB69DBB218462037BD4680BD005A620210
:102C200080B588B000AFF860B9607A60FB70FB785F
:102C3000002B01D11E4A00E01E4ABB689A4206D210
:102C4000FB78002B01D11A4B00E01A4BBB607B686C
:102C5000002B04D12A20FDF7FBFCB86101E07B6862
:102C6000BB6197F828300133BA69B2FBF3F3BB615B
:102C7000BA69BB6813445A1EBB68B2FBF3F3FB612D
:102C8000FB69002B02D0FB69013BFB61FB697B61A7
:102C900040F2FF333B613A697B69934228BF134698
:102CA000FB61FB69DBB218462037BD4680BD00BF23
:102CB00080969800404B4C0080B584B000AF78609F
:102CC00039603B681B6F03F00703FB603B68596F7B
:102CD000FB68DAB27B681846FFF7C7FA78681037E6
:102CE000BD4680BD80B483B000AF0346FB7197F949
:102CF0000730002B0BDBFB7903F01F02074997F924
:102D000007305B09012000FA02F241F8232000BFDE
:102D10000C37BD465DF8047B704700BF00E100E062
:102D200080B483B000AF0346FB7197F90730002BE6
:102D30000CDBFB7903F01F02074997F907305B09A9
:102D4000012000FA02F2603341F8232000BF0C3763
:102D5000BD465DF8047B704700E100E080B400AF41
:102D6000044B1B681B0CDBB21846BD465DF8047BA8
:102D7000704700BF0080E00F80B483B000AF786080
:102D8000064B03F500531A467B68C2F8203400BF97
:102D90000C37BD465DF8047B704700BF00C00340A0
:102DA00080B400AF034BD3F820341846BD465DF81D
:102DB000047B704700C0034080B582B000AFFFF7CE
:102DC000CDFF0346012B1CD1104B5B6E03F4802317
:102DD000002B0CBF01230023FB710C4B03F5805328
:102DE0001A464FF480235366094B04221A60FB797C
:102DF000002B06D0054B03F500531A464FF48023F1
:102E0000536600BF0837BD4680BD00BF008000404C
:102E10002020014080B483B000AF786039607B68C7
:102E20003A68DA6000BF0C37BD465DF8047B704736
:102E3000B0B598B002AF07F1340300221A605A60AF
:102E40009A605D4B07F10C041D460FCD0FC40FCDEA
:102E50000FC495E8030084E803003B1D00221A60BC
:102E60005A600323BB7101233B7000237B70002356
:102E7000BB700023FB7001212A20FDF7B3FB4F48F4
:102E8000FFF7BEFD02214FF4B060FDF7E9FF00231C
:102E900087F83730C8237B87002249494748FFF726
:102EA0008DFE034687F839300023FB7397F83930DD
:102EB00000930023002243494048FFF7B1FE034638
:102EC0007B6111237B7001233B7000237B7207F130
:102ED0000C0207F1340319463848FFF701FA3A4665
:102EE0003B1D19463548FFF7FDFC01213348FFF72C
:102EF00091FF00BF314B5B6903F4A073B3F5807F92
:102F0000F8D107F140032D491846FFF7D5FE3B6C79
:102F10007B657B6D9B00184600F0E0F922A3D3E9A6
:102F2000002300F055FA02460B461046194620A32E
:102F3000D3E9002300F076FB02460B46C7E91223D3
:102F40001E48FFF75DFD00213420FDF74BFB0021FB
:102F50002A20FDF747FB7B6D9B00184600F0CEF959
:102F600011A3D3E9002300F033FA02460B461046C2
:102F700019460FA3D3E9002300F054FB02460B4689
:102F8000104619464FF000020F4B00F06BF8024656
:102F90000B461046194600F02DFC034618465837DC
:102FA000BD46B0BDAFF300805C8FC2F5285CF33F37
:102FB0000000000000FEAF40F03800000040004A72
:102FC000002D3101A086010000407F4080B582B015
:102FD00000AFFFF7E5FE78607868FFF7CDFE7B680D
:102FE00003F00103002B02D0FFF722FF386000BF7F
:102FF0000837BD4680BD80B582B002AF01213A20BE
:10300000FDF7F0FA0123022200210120FFF734F836
:1030100001230193012300930023002200210120BA
:10302000FEF79EFF1A20FFF77BFE1A20FFF75AFEDD
:1030300000BFBD4680BD80B500AFFFF7BDFEFFF706
:10304000DAFF4FF0402303F580531A4601235367FC
:103050000020FEF725FEFBE781F0004102E000BF03
:1030600083F0004330B54FEA41044FEA430594EA48
:10307000050F08BF90EA020F1FBF54EA000C55EA83
:10308000020C7FEA645C7FEA655C00F0E2804FEA54
:103090005454D4EB5555B8BF6D420CDD2C4480EA36
:1030A000020281EA030382EA000083EA010180EA66
:1030B000020281EA0303362D88BF30BD11F0004FB4
:1030C0004FEA01314FF4801C4CEA113102D04042EA
:1030D00061EB410113F0004F4FEA03334CEA133325
:1030E00002D0524263EB430394EA050F00F0A7803D
:1030F000A4F10104D5F1200E0DDB02FA0EFC22FA38
:1031000005F2801841F1000103FA0EF2801843FA2B
:1031100005F359410EE0A5F120050EF1200E012A1C
:1031200003FA0EFC28BF4CF0020C43FA05F3C0185A
:1031300051EBE37101F0004507D54FF0000EDCF1D3
:10314000000C7EEB00006EEB0101B1F5801F1BD37C
:10315000B1F5001F0CD349085FEA30004FEA3C0C80
:1031600004F101044FEA445212F5800F80F09A8076
:10317000BCF1004F08BF5FEA500C50F1000041EB7A
:10318000045141EA050130BD5FEA4C0C404141EB7E
:103190000101013C28BFB1F5801FE9D291F0000F79
:1031A00004BF01460020B1FA81F308BF2033A3F128
:1031B0000B03B3F120020CDA0C3208DD02F1140C1F
:1031C000C2F10C0201FA0CF021FA02F10CE002F15A
:1031D0001402D8BFC2F1200C01FA02F120FA0CFC53
:1031E000DCBF41EA0C019040E41AA2BF01EB04519C
:1031F000294330BD6FEA04041F3C1CDA0C340EDC9A
:1032000004F11404C4F1200220FA04F001FA02F3DC
:1032100040EA030021FA04F345EA030130BDC4F19A
:103220000C04C4F1200220FA02F001FA04F340EA8F
:103230000300294630BD21FA04F0294630BD94F040
:10324000000F83F4801306BF81F480110134013D27
:103250004EE77FEA645C18BF7FEA655C29D094EA98
:10326000050F08BF90EA020F05D054EA000C04BF16
:103270001946104630BD91EA030F1EBF0021002001
:1032800030BD5FEA545C05D14000494128BF41F0A0
:10329000004130BD14F580043CBF01F5801130BD04
:1032A00001F0004545F0FE4141F470014FF000008F
:1032B00030BD7FEA645C1ABF194610467FEA655C40
:1032C0001CBF0B46024650EA013406BF52EA0335E2
:1032D00091EA030F41F4002130BD00BF90F0000FD0
:1032E00004BF0021704730B54FF4806404F132040C
:1032F0004FF000054FF0000150E700BF90F0000FC5
:1033000004BF0021704730B54FF4806404F13204EB
:1033100010F0004548BF40424FF000013EE700BFBB
:1033200042004FEAE2014FEA31014FEA02701FBF4B
:1033300012F07F4393F07F4F81F06051704732F07D
:103340007F4208BF704793F07F4F04BF41F40021D4
:10335000704730B54FF4607401F0004521F0004132
:103360001CE700BF50EA010208BF704730B54FF0BC
:1033700000050AE050EA010208BF704730B511F0BD
:10338000004502D5404261EB41014FF4806404F1F5
:1033900032045FEA915C3FF4D8AE4FF003025FEA7B
:1033A000DC0C18BF03325FEADC0C18BF033202EBFF
:1033B000DC02C2F1200300FA03FC20FA02F001FA59
:1033C00003FE40EA0E0021FA02F11444BDE600BFFC
:1033D00070B54FF0FF0C4CF4E06C1CEA11541DBFAB
:1033E0001CEA135594EA0C0F95EA0C0F00F0DEF876
:1033F0002C4481EA030621EA4C5123EA4C5350EA5B
:10340000013518BF52EA033541F4801143F48013AB
:1034100038D0A0FB02CE4FF00005E1FB02E506F03C
:103420000042E0FB03E54FF00006E1FB03569CF091
:10343000000F18BF4EF0010EA4F1FF04B6F5007F97
:1034400064F5407404D25FEA4E0E6D4146EB060609
:1034500042EAC62141EA55514FEAC52040EA5E5092
:103460004FEACE2EB4F1FD0C88BFBCF5E06F1ED83C
:10347000BEF1004F08BF5FEA500E50F1000041EB73
:10348000045170BD06F0004646EA010140EA020020
:1034900081EA0301B4EB5C04C2BFD4EB0C0541EA42
:1034A000045170BD41F480114FF0000E013C00F357
:1034B000AB8014F1360FDEBF002001F0004170BD7B
:1034C000C4F10004203C35DA0C341BDC04F1140494
:1034D000C4F1200500FA05F320FA04F001FA05F220
:1034E00040EA020001F0004221F0004110EBD370ED
:1034F00021FA04F642EB06015EEA430E08BF20EA19
:10350000D37070BDC4F10C04C4F1200500FA04F3BB
:1035100020FA05F001FA04F240EA020001F000414D
:1035200010EBD37041F100015EEA430E08BF20EAC0
:10353000D37070BDC4F1200500FA05F24EEA020E08
:1035400020FA04F301FA05F243EA020321FA04F037
:1035500001F0004121FA04F220EA020000EBD370EE
:103560005EEA430E08BF20EAD37070BD94F0000FEE
:103570000FD101F00046400041EB010111F4801F22
:1035800008BF013CF7D041EA060195F0000F18BFD3
:10359000704703F00046520043EB030313F4801F0F
:1035A00008BF013DF7D043EA0603704794EA0C0FC9
:1035B0000CEA135518BF95EA0C0F0CD050EA4106DF
:1035C00018BF52EA4306D1D181EA030101F000415C
:1035D0004FF0000070BD50EA410606BF1046194684
:1035E00052EA430619D094EA0C0F02D150EA013690
:1035F00013D195EA0C0F05D152EA03361CBF1046D1
:1036000019460AD181EA030101F0004141F0FE416F
:1036100041F470014FF0000070BD41F0FE4141F4F3
:10362000780170BD70B54FF0FF0C4CF4E06C1CEAF3
:1036300011541DBF1CEA135594EA0C0F95EA0C0FA8
:1036400000F0A7F8A4EB050481EA030E52EA033563
:103650004FEA013100F088804FEA03334FF0805584
:1036600045EA131343EA12634FEA022245EA1115B1
:1036700045EA10654FEA00260EF000419D4208BF62
:10368000964244F1FD0404F5407402D25B084FEA0F
:103690003202B61A65EB03055B084FEA32024FF4BB
:1036A00080104FF4002CB6EB020E75EB030E22BF18
:1036B000B61A754640EA0C005B084FEA3202B6EBD8
:1036C000020E75EB030E22BFB61A754640EA5C0087
:1036D0005B084FEA3202B6EB020E75EB030E22BF17
:1036E000B61A754640EA9C005B084FEA3202B6EB18
:1036F000020E75EB030E22BFB61A754640EADC00D7
:1037000055EA060E18D04FEA051545EA16754FEA38
:1037100006164FEAC30343EA52734FEAC2025FEA56
:103720001C1CC0D111F4801F0BD141EA00014FF0E5
:1037300000004FF0004CB6E711F4801F04BF0143B6
:103740000020B4F1FD0C88BFBCF5E06F3FF6AFAED2
:10375000B5EB030C04BFB6EB020C5FEA500C50F162
:10376000000041EB045170BD0EF0004E4EEA1131E5
:1037700014EB5C04C2BFD4EB0C0541EA045170BDEC
:1037800041F480114FF0000E013C90E645EA060E30
:103790008DE60CEA135594EA0C0F08BF95EA0C0F5E
:1037A0003FF43BAF94EA0C0F0AD150EA01347FF4A6
:1037B00034AF95EA0C0F7FF425AF104619462CE77D
:1037C00095EA0C0F06D152EA03353FF4FDAE1046E0
:1037D000194622E750EA410618BF52EA43067FF431
:1037E000C5AE50EA41047FF40DAF52EA43057FF4C1
:1037F000EBAE12E74FEA410212F5001215D211D5D5
:103800006FF47873B3EB625212D94FEAC12343F0DD
:10381000004343EA505311F0004F23FA02F018BF5F
:10382000404270474FF00000704750EA013005D128
:1038300011F0004008BF6FF0004070474FF00000EB
:10384000704700BF08B5074B044613B1002100E0E4
:1038500000BF054B1868836A03B19847204600F003
:1038600031F800BF000000001839000070B50D4DA0
:1038700000260D4C641BA410A64209D10B4D002656
:103880000B4C00F021F8641BA410A64205D170BDBA
:1038900055F8043B01369847EEE755F8043B0136EE
:1038A0009847F2E7A8000020A8000020A800002008
:1038B000AC00002002440346934200D1704703F855
:1038C000011BF9E7FEE700BFF8B500BFF8BC08BC74
:1038D0009E467047F8B500BFF8BC08BC9E467047CE
:1038E00001B40248844601BC604700BF710000205B
:1038F000000002000000000000000000BA04000008
:1039000000000000000002000000000000000000B5
:10391000BA040000000000001000002000000000B9
:0839200060C8FF7F01000000F8
:1039280000F0490200800000C0EA2101C0EA21013C
:10393800000000000000000000000000000000007F
:10394800000000000000000000000000000000006F
:10395800000000000000000000000000000000005F
:10396800000000000000000000000000000000004F
:10397800000000000000000000000000000000003F
:10398800000000000000000000000000000000002F
:1039980080B483B000AF30BF0A4B1B6803F001034B
:1039A800002B08D000237B6002E07B6801337B603A
:1039B8007B68052BF9DD00BF0C37BD465DF8047B3D
:1039C800704700BFF0ED00E0650100004101000014
:04000003000001FDFB
:00000001FF
